:020000040000FA
:10000000180A0010E1000000E9000000EB00000009
:10001000ED000000EF000000F10000000000000013
:10002000000000000000000000000000F3000000DD
:10003000F500000000000000F7000000F1010000E2
:10004000FB000000FB000000FB000000FB000000C4
:10005000FB000000FB000000FB000000FB000000B4
:10006000FB000000FB000000FB000000FB000000A4
:10007000FB000000FB000000FB000000FB00000094
:10008000FB000000FB000000FB000000FB00000084
:10009000FB000000FB000000FB000000FB00000074
:1000A000FB0000007D010000FB000000FB000000E1
:1000B000FB000000FB000000FB000000FB00000054
:1000C000FB000000FB000000FB000000DFF80CD08C
:1000D00000F03CF8004800479D100000180A00108E
:1000E0000648804706480047FEE7FEE7FEE7FEE7D2
:1000F000FEE7FEE7FEE7FEE7FEE7FEE7010300009E
:10010000CD00000040EA01039B0703D009E008C9C5
:10011000121F08C0042AFAD203E011F8013B00F8CC
:10012000013B521EF9D27047D2B201E000F8012B18
:10013000491EFBD270470022F6E710B513460A4667
:1001400004461946FFF7F0FF204610BD1CB50948CC
:100150000090094801900546009C06E0E06840F0E8
:10016000010394E8070098471034AC42F6D3FFF738
:10017000B1FF0000001600002016000080B544F218
:100180000000C4F20400002100F048FE48F2000024
:10019000C4F20400012100F041FE80BD80B582B0B0
:1001A000009000980138B0F1807F03D3FFE7012071
:1001B000019019E0009801384EF21401CEF20001CE
:1001C00008604FF0FF301F2100F016F84EF21801C2
:1001D000CEF20001002008604EF21002CEF20002C2
:1001E000072111600190FFE7019802B080BD000077
:1001F00080B500F027FC80BD82B08DF8070000912B
:100200009DF9070000280AD4FFE70098C0009DF977
:1002100007104EF20042CEF2000288540BE0009824
:10022000C0009DF8071001F00F014EF61452CEF2F7
:1002300000028854FFE702B07047000080B584B028
:1002400000208DF80F00FFE79DF80F00012838DC33
:10025000FFE79DF80F1040F20800C1F2000000EB2C
:1002600081200290029890F8F803C00708B9FFE7D0
:1002700021E040F60C00C1F2000000680299D1F8BC
:10028000FC13401AB0F5FA7F14D3FFE79DF80F0076
:1002900000F00EFB01900199086840F00100086031
:1002A0000199086820F0010008600299002081F897
:1002B000F803FFE7FFE79DF80F0001308DF80F000E
:1002C000C2E704B080BD000081B00090009890F8B3
:1002D0008202B0FA80F0400901B0704781B000900E
:1002E000009890F8821200201F29C8BF012001B099
:1002F000704770470000000000000000FFFFFFFF94
:100300004CF2A010C4F20F002021016000688006AA
:1003100000280CD5FFE7FFE74CF2A010C4F20F0055
:1003200000684006002801D4FFE7F5E7FFE74CF23C
:100330000411C4F20F01032008604CF2A811C4F2AA
:100340000F01002008604CF2AC11C4F20F010860EC
:100350004CF20C10C4F20F00012303604CF2840134
:10036000C4F20F016320C0F2050008604CF28C015A
:10037000C4F20F01AA220A60552008604CF2800CDA
:10038000C4F20F0CCCF800300A600860FFE74CF2B2
:100390008800C4F20F0000684001002801D4FFE784
:1003A000F5E74CF28001C4F20F01032008604CF223
:1003B0008C01C4F20F01AA20086055200860FFE7F5
:1003C0004CF28800C4F20F00006800F04070B0F1F9
:1003D000407F01D0FFE7F3E74CF2A401C4F20F0124
:1003E000232008604CF2AC01C4F20F01AA220A607B
:1003F000552008604CF2A00CC4F20F0C0123CCF87D
:1004000000300A600860FFE74CF2A800C4F20F0059
:1004100000684005002801D4FFE7F5E74CF2A00191
:10042000C4F20F01032008604CF2AC01C4F20F01CA
:10043000AA20086055200860FFE74CF2A800C4F22B
:100440000F00006800F44070B0F5407F01D0FFE776
:10045000F3E74CF2C401C4F20F0148F2DE70C0F2BF
:10046000284008604CF2C811C4F20F010020086057
:100470004CF20001C4F20F010868042262F30F304D
:100480000860704780B584B0029001910298FFF730
:100490001BFF20B1FFE700208DF80F002BE0019932
:1004A000029890F8812202EB820200EB820E50F853
:1004B0002200DEF80420DEF80830DEF80CC0DEF89A
:1004C00010E0C1F810E0C1F80CC08B604A60086011
:1004D000029890F88102013000F01F00029981F823
:1004E0008102029991F88202013881F8820201208A
:1004F0008DF80F00FFE79DF80F0004B080BD0000ED
:10050000B0B584B0029001910298FFF7E7FE20B1E8
:10051000FFE700208DF80F0028E0029C94F880028D
:1005200000EB800504EB8501019BD3F810C0D3F8E4
:1005300000E058689A68DB6844F825E0C1F810C00C
:10054000CB608A604860029890F88002013000F029
:100550001F00029981F88002029991F8820201300D
:1005600081F8820201208DF80F00FFE79DF80F004F
:1005700004B0B0BD80B58CB00A90099100F088F845
:10058000089008980A99B0FBF1F0079000208DF8C8
:10059000070019200690FFE70698082843D3FFE7D5
:1005A000079A0699B2FBF1F000FB112008B1FFE7B2
:1005B00035E007980699B0FBF1F00590059828B151
:1005C000FFE70598B0F5806F01D9FFE727E00698AF
:1005D0004CF6CD41CCF6CC41A0FB01108008039035
:1005E0000398012803D8FFE702200390FFE7039850
:1005F000092803D3FFE708200390FFE70699039833
:10060000C04308440490049820B1FFE704981128DF
:1006100001D3FFE703E001208DF8070003E006980F
:1006200001380690B8E79DF80700C00720B9FFE73A
:100630004FF0FF300B9027E00398032803D8FFE723
:100640000398009002E004200090FFE700980290D9
:10065000059801386FF39F20029940EA8130A0F598
:100660008040049A0021CFF6FF7101EB024108435C
:10067000039A0021CFF6F07101EB0251084309996A
:10068000086000200B90FFE70B980CB080BD0000C5
:1006900040F20000C1F200000068800870470000CE
:1006A00082B08DF803009DF8030048B9FFE74CF2D3
:1006B000C401C4F20F01086840F40050086012E061
:1006C0009DF80300012809D1FFE74CF2C401C4F2F0
:1006D0000F01086840F48040086003E04FF0FF30ED
:1006E00001900FE0FFE74CF2A811C4F20F01086877
:1006F00020F040600860086820F04050086000204A
:100700000190FFE7019802B07047000083B08DF8B8
:1007100007009DF8070068B9FFE74CF20001C4F23A
:100720000201086820F00F000860086840F005002A
:1007300008601FE09DF80700012816D1FFE74CF282
:100740000001C4F202010091086820F440700860C2
:10075000086840F400700860086820F44060086091
:10076000086840F40060086003E04FF0FF3002903A
:1007700003E0FFE700200290FFE7029803B0704714
:1007800080B588B00690069820B9FFE74FF0FF309B
:1007900007908AE0069800788DF817009DF81700FA
:1007A000022804DBFFE74FF0FF3007907DE09DF863
:1007B000170000F07DF804909DF8171040F2080033
:1007C000C1F2000000EB812003909DF81700FFF7B5
:1007D00067FF0290029818B1FFE70298079064E063
:1007E0009DF81700FFF792FF0290029818B1FFE7FB
:1007F0000298079059E004990120086004990020AC
:1008000088600698406801A9FFF7B4FE029002983C
:1008100018B1FFE70298079047E0019804994861F2
:100820000499602088610498C068049900200861D8
:1008300040F60800C1F200000078C00738B9FFE7B1
:100840004CF20001C4F2030102200860FFE70398A4
:100850004FF48061FFF76FFC0698C0680399486009
:1008600006980069039988600698007D039900F056
:100870000100487040F60C00C1F2000000680399C6
:10088000C1F8F4030399012008709DF81700069938
:10089000097A00F08BF80290029818B1FFE70298ED
:1008A000079002E000200790FFE7079808B080BD9E
:1008B00081B08DF803009DF8031048F20000C4F2E7
:1008C0000400002904BF44F20000C4F2040001B097
:1008D0007047000080B586B08DF813000391029236
:1008E0009DF81300012803DCFFE7039820B9FFE718
:1008F0004FF0FF30059055E09DF81300810240F263
:100900000800C1F20000405CC00720B9FFE76FF0AB
:100910000600059046E09DF81300FFF7C9FF01901F
:100920009DF8131040F20800C1F2000000EB812096
:100930000C300399FFF7A6FD18B1FFE700200590E2
:1009400030E0019803999DF8132000F009F918B1DF
:10095000FFE70020059025E00298F8B1FFE740F698
:100960000C00C1F2000000680090FFE740F60C00A8
:10097000C1F2000000680099401A029988420CD226
:10098000FFE7019803999DF8132000F0E9F818B1EA
:10099000FFE70020059005E0E8E7FFE76FF00100C2
:1009A0000590FFE7059806B080BD000080B584B0D3
:1009B0008DF80B008DF80A109DF80B00022804DB5F
:1009C000FFE74FF0FF30039038E09DF80B00FFF792
:1009D0006FFF01909DF80A0001460091032826D878
:1009E0000099DFE801F00208131E0199086820F061
:1009F000070008601FE00199086840F002000860E5
:100A00000199086820F00100086014E00199086865
:100A100040F0040008600199086820F001000860B7
:100A200009E00199086840F00100086003E04FF018
:100A3000FF30039002E000200390FFE7039804B02A
:100A400080BD000080B540F60C01C1F200010868CD
:100A500001300860FFF7F2FB80BD000081B000901C
:100A6000009890F84201B0FA80F0400901B0704758
:100A700080B584B0029001910298FFF7EFFF20B19A
:100A8000FFE700208DF80F002BE00199029890F805
:100A9000412102EB820200EB820E50F82200DEF8C8
:100AA0000420DEF80830DEF80CC0DEF810E0C1F8F3
:100AB00010E0C1F80CC08B604A600860029890F8A2
:100AC0004101013000F00F00029981F841010299C3
:100AD00091F84201013881F8420101208DF80F00A0
:100AE000FFE79DF80F0004B080BD000082B00190C8
:100AF000FFE70198A8B1FFE700200090FFE700980A
:100B000048F29F61C0F20101884205D8FFE7FFE784
:100B1000009801300090F2E7FFE70198013801905A
:100B2000E7E702B07047000082B08DF807009DF83B
:100B3000071040F20800C1F2000000EB812040786D
:100B4000C00738B1FFE740F60C00C1F200000068B2
:100B5000009002E000200090FFE7009802B070478C
:100B600080B58AB0089007918DF81B20089880689E
:100B7000C00718B9FFE70020099075E00898006ADF
:100B800005900898406A04900898806A0390089835
:100B9000C06A02900598C00F0799087107980079FC
:100BA000012805D1FFE7049820F06040019004E09F
:100BB00004986FF3DF200190FFE701980799086020
:100BC0000598C0F38070079948710598C0F30340F9
:100BD0000799887103980799C8710398000A0799C3
:100BE0000872BDF80E00079948729DF80F0007992A
:100BF000887202980799C8720298000A07990873C8
:100C0000BDF80A00079948739DF80B00079988738F
:100C10009DF81B00FFF788FF0799086108990420D9
:100C200048609DF81B1040F20800C1F2000000EB84
:100C30008122D2F8D8130131C2F8D8139DF81B10C5
:100C400000EB8120406860B1FFE79DF81B0040F297
:100C50000801C1F2000101EB80214A680799904721
:100C6000FFE701200990FFE709980AB080BD000066
:100C700084B002900298C0F38150019001980090D6
:100C800040B1FFE70098012808D0FFE7009802284C
:100C900008D00BE005208DF80F000BE002208DF846
:100CA0000F0007E001208DF80F0003E006208DF80B
:100CB0000F00FFE79DF80F0004B0704780B590B0BB
:100CC0000F908DF83B109DF83B1040F20800C1F2E8
:100CD000000000EB81200D90FFE70D9800F52470D7
:100CE000FFF7BCFE002840F09680FFE70F98C06930
:100CF00007909DF81C00400700280FD5FFE70F98CC
:100D0000303005900F98343004900F9838300390AD
:100D10000F983C300290202006902CE09DF81D009A
:100D2000400700280FD5FFE70F98403005900F9837
:100D3000443004900F98483003900F984C30029044
:100D40004020069016E09DF81E00400700280FD5B1
:100D5000FFE70F98503005900F98543004900F988B
:100D6000583003900F985C3002908020069000E08D
:100D700051E0FFE7FFE70D9800F5247008A9FFF7A1
:100D800077FE9DF8260000F00F00000401909DF80A
:100D90002400012805D1FFE7019840F000400190B0
:100DA000FFE79DF82500C00728B1FFE7019840F054
:100DB00080400190FFE70198059908609DF82400A4
:100DC000012805D1FFE7089820F06040009004E07A
:100DD00008986FF3DF200090FFE7009804990860FF
:100DE000DDF8270003990860DDF82B000299086000
:100DF0000F9800684007002806D5FFE7069840F0E6
:100E000010000F99486005E0069840F001000F9926
:100E10004860FFE761E710B080BD000080B586B094
:100E200005908DF813100598C06803909DF8131075
:100E300040F20800C1F2000000EB8120029002980D
:100E40000078C00708B9FFE7ABE09DF80C00C007C9
:100E500060B1FFE705989DF8131000F0A5F802991E
:100E6000D1F8D8030130C1F8D803FFE7BDF80C0072
:100E700040F2026108420CD0FFE70299D1F8D40396
:100E80000130C1F8D40305989DF81310FFF716FF41
:100E9000FFE79DF80C00000700280AD5FFE7059939
:100EA000082048600299D1F8E8030130C1F8E8034E
:100EB000FFE79DF80C004006002807D5FFE70299E0
:100EC000D1F8EC030130C1F8EC03FFE79DF80C000A
:100ED000000600281DD5FFE70398FFF7C9FE8DF82F
:100EE00007009DF80700029981F8F0030299D1F8F4
:100EF000DC030130C1F8DC030298806840B1FFE7F1
:100F0000029882689DF813009DF807109047FFE74C
:100F1000FFE79DF80C0010F0240F42D0FFE7059882
:100F200080680006002822D5FFE70299D1F8E40383
:100F30000130C1F8E4030299072081F8F003029917
:100F4000012081F8F80340F60C00C1F200000068AF
:100F50000299C1F8FC030298806838B1FFE7029853
:100F600082689DF8130007219047FFE718E0059875
:100F700080684006002812D5FFE70299D1F8E00307
:100F80000130C1F8E0030298806838B1FFE70298A9
:100F900082689DF8130003219047FFE7FFE7FFE712
:100FA000FFE706B080BD000080B58EB00D908DF8D3
:100FB00033109DF8331040F20800C1F2000000EB3E
:100FC00081200B90FFE70D988068C007002862D051
:100FD000FFE70D98006A05900D98406A04900D98FF
:100FE000806A03900D98C06A02900598C00F8DF832
:100FF0001C009DF81C00012805D1FFE7049820F093
:101000006040019004E004986FF3DF200190FFE757
:10101000019806900598C0F380708DF81D00059822
:10102000C0F303408DF81E0003988DF81F0003984D
:10103000000A8DF82000BDF80E008DF821009DF803
:101040000F008DF8220002988DF823000298000A04
:101050008DF82400BDF80A008DF825009DF80B00DE
:101060008DF826009DF83300FFF75EFD0A900D997C
:10107000042048600B980C3006A9FFF741FA0B9842
:10108000406838B1FFE70B9842689DF8330006A925
:101090009047FFE797E70EB080BD000080B590B0A5
:1010A000002001900F904CF22001C2F20901086863
:1010B00040F4340008604CF23C01C2F209014FF4E4
:1010C0003400086040F20000C1F20000006844F6FD
:1010D000D351C1F26201A0FB01108009FFF75EF855
:1010E0004FF4E13000F0F8F841F2CC40C0F20000DB
:1010F00000F0B0F941F26350C0F2000000F0AAF92C
:1011000041F29050C0F2000000F0A4F941F2B35057
:10111000C0F2000000F09EF941F2A440C0F20000CD
:1011200000F098F901980E900D900C900B900A9099
:1011300009908DF824004AF22011C0F207010A91AB
:101140008DF82C0001208DF8380009A8FFF718FB56
:1011500098B1FFE741F2CF40C0F2000000F07AF909
:10116000FFE74CF23401C2F20901086880F4340050
:1011700008606420FFF7BAFCF3E741F2E840C0F2F0
:10118000000000F067F941F24850C0F2000000F0A2
:1011900061F941F21E50C0F2000000F05BF94CF220
:1011A0003801C2F209014FF4802008600020089045
:1011B000FFE703A900221046FFF78CFB00286DD142
:1011C000FFE70898013008904CF23401C2F209019F
:1011D000086880F4801008604CF23801C2F20901FE
:1011E0004FF40010086041F2CE50C0F2000000F051
:1011F00031F9089800F0CEF841F2F550C0F2000045
:1012000000F028F90398032100F0FCF841F2D450D3
:10121000C0F2000000F01EF99DF8120000F0BAF8CC
:1012200041F2EC50C0F2000000F014F900208DF8FB
:101230000B00FFE79DF80B109DF812200020914253
:10124000009008DAFFE79DF80B1000200829B8BFCE
:1012500001200090FFE70098C007C0B1FFE79DF8AC
:101260000B00012804DBFFE7202000F07BF8FFE7FC
:101270009DF80B1003A80844C079022100F0C2F8C1
:10128000FFE79DF80B0001308DF80B00D2E741F22B
:101290008D50C0F2000000F0DDF8FFE740F61001CD
:1012A000C1F200010868013008604AF22011C0F262
:1012B000070188420FD3FFE740F61001C1F2000199
:1012C000002008604CF23401C2F20901086880F481
:1012D00080200860FFE76CE782B001904CF2C40107
:1012E000C4F20F01086840F0080008604CF2A81131
:1012F000C4F20F01086840F0400008604CF20001A1
:10130000C4F20201086820F0F0000860086840F0AC
:10131000500008604CF20C01C4F2000183200870F8
:1013200040F20000C1F200000068019A1201B0FB17
:10133000F2F0009000984CF20002C4F2000210702B
:101340000098000A4CF20402C4F20002107003205C
:1013500008704CF20801C4F200010720087002B0C6
:101360007047000081B08DF80300FFE74CF21400D5
:10137000C4F2000000788006002801D4FFE7F5E7FA
:101380009DF803004CF20001C4F20001087001B0A6
:101390007047000080B586B0059000200190059848
:1013A00020B9FFE73020FFF7DDFF29E0FFE70598D0
:1013B000C8B1FFE705984CF6CD41CCF6CC41A0FB77
:1013C0000132D20802EB8202A0EB420040F0300072
:1013D000019B5A1C019202AAD0540598A0FB01104F
:1013E000C0080590E3E7FFE70198012808DBFFE765
:1013F0000198411E019102A8405CFFF7B3FFF3E79B
:1014000006B080BD80B588B00790069141F2DB51EF
:10141000C0F200010DF107001122FEF773FE0698DD
:1014200001380090FFE70098002810D4FFE70798E4
:1014300000998900C84000F00F010DF10700405CE1
:10144000FFF790FFFFE7009801380090EBE708B046
:1014500080BD000080B582B00190FFE70198007860
:1014600080B1FFE7019800780A2804D1FFE70D203A
:10147000FFF778FFFFE70198411C01910078FFF723
:1014800071FFEBE702B080BD02E008C8121F08C17F
:10149000002AFAD17047002001E001C1121F002A82
:1014A000FBD170473D3D3D3D3D3D3D3D3D3D3D3DDD
:1014B0003D3D3D3D3D3D3D3D3D3D3D3D3D3D3D3D5C
:1014C0003D3D3D3D3D3D3D3D3D3D3D3D0A0A005BD1
:1014D0004641494C5D2043414E20696E6974206647
:1014E00061696C6564210A005B4F4B5D2043414E8E
:1014F0003120696E697469616C697A65642028615C
:10150000636365707420616C6C20E2809420627962
:10151000706173732066696C746572290A002D2DE1
:101520002D2D2D2D2D2D2D2D2D2D2D2D2D2D2D2DEB
:101530002D2D2D2D2D2D2D2D2D2D2D2D2D2D2D2DDB
:101540002D2D2D2D2D2D0A0057616974696E672090
:10155000666F722043414E206672616D65732E2E58
:101560002E0A003D3D3D3D3D3D3D3D3D3D3D3D3D2A
:101570003D3D3D3D3D3D3D3D3D3D3D3D3D3D3D3D9B
:101580003D3D3D3D3D3D3D3D3D3D3D0A005D0A004B
:1015900020202043414E2052582044656D6F20E2A8
:1015A0008094204C50433137363820447269766538
:1015B000720A00202020506F6C6C696E67204D6F9E
:1015C00064652C20353030206B6270730A005B52EA
:1015D000582023002020444C433D00303132333426
:1015E000353637383941424344454600202044616E
:1015F00074613D5B005D2049443D3078000000008F
:1016000020160000000000100400000088140000F4
:101610002416000008000010100A000096140000B4
:0416200000E1F505EB
:04000005000000E116
:00000001FF
