:020000040000FA
:10000000100A0010E1000000E9000000EB00000011
:10001000ED000000EF000000F10000000000000013
:10002000000000000000000000000000F3000000DD
:10003000F500000000000000F7000000F1010000E2
:10004000FB000000FB000000FB000000FB000000C4
:10005000FB000000FB000000FB000000FB000000B4
:10006000FB000000FB000000FB000000FB000000A4
:10007000FB000000FB000000FB000000FB00000094
:10008000FB000000FB000000FB000000FB00000084
:10009000FB000000FB000000FB000000FB00000074
:1000A000FB0000007D010000FB000000FB000000E1
:1000B000FB000000FB000000FB000000FB00000054
:1000C000FB000000FB000000FB000000DFF80CD08C
:1000D00000F03CF8004800474D100000100A0010E6
:1000E0000648804706480047FEE7FEE7FEE7FEE7D2
:1000F000FEE7FEE7FEE7FEE7FEE7FEE7010300009E
:10010000CD00000040EA01039B0703D009E008C9C5
:10011000121F08C0042AFAD203E011F8013B00F8CC
:10012000013B521EF9D27047D2B201E000F8012B18
:10013000491EFBD270470022F6E710B513460A4667
:1001400004461946FFF7F0FF204610BD1CB50948CC
:100150000090094801900546009C06E0E06840F0E8
:10016000010394E8070098471034AC42F6D3FFF738
:10017000B1FF0000B8150000D815000080B544F2AA
:100180000000C4F20400002100F020FE48F200004C
:10019000C4F20400012100F019FE80BD80B582B0D8
:1001A000009000980138B0F1807F03D3FFE7012071
:1001B000019019E0009801384EF21401CEF20001CE
:1001C00008604FF0FF301F2100F016F84EF21801C2
:1001D000CEF20001002008604EF21002CEF20002C2
:1001E000072111600190FFE7019802B080BD000077
:1001F00080B500F075FB80BD82B08DF807000091DE
:100200009DF9070000280AD4FFE70098C0009DF977
:1002100007104EF20042CEF2000288540BE0009824
:10022000C0009DF8071001F00F014EF61452CEF2F7
:1002300000028854FFE702B07047000080B584B028
:1002400000208DF80F00FFE79DF80F00012838DC33
:10025000FFE79DF80F1040F20800C1F2000000EB2C
:1002600081200290029890F8F803C00708B9FFE7D0
:1002700021E040F60C00C1F2000000680299D1F8BC
:10028000FC13401AB0F5FA7F14D3FFE79DF80F0076
:1002900000F0C8FA01900199086840F00100086078
:1002A0000199086820F0010008600299002081F897
:1002B000F803FFE7FFE79DF80F0001308DF80F000E
:1002C000C2E704B080BD000081B00090009890F8B3
:1002D000821200201F29C8BF012001B07047000012
:1002E00040F20000C1F2000000688008704702E0A0
:1002F00008C8121F08C1002AFAD17047FFFFFFFF8C
:100300004CF2A010C4F20F002021016000688006AA
:1003100000280CD5FFE7FFE74CF2A010C4F20F0055
:1003200000684006002801D4FFE7F5E7FFE74CF23C
:100330000411C4F20F01032008604CF2A811C4F2AA
:100340000F01002008604CF2AC11C4F20F010860EC
:100350004CF20C10C4F20F00012303604CF2840134
:10036000C4F20F016320C0F2050008604CF28C015A
:10037000C4F20F01AA220A60552008604CF2800CDA
:10038000C4F20F0CCCF800300A600860FFE74CF2B2
:100390008800C4F20F0000684001002801D4FFE784
:1003A000F5E74CF28001C4F20F01032008604CF223
:1003B0008C01C4F20F01AA20086055200860FFE7F5
:1003C0004CF28800C4F20F00006800F04070B0F1F9
:1003D000407F01D0FFE7F3E74CF2A401C4F20F0124
:1003E000232008604CF2AC01C4F20F01AA220A607B
:1003F000552008604CF2A00CC4F20F0C0123CCF87D
:1004000000300A600860FFE74CF2A800C4F20F0059
:1004100000684005002801D4FFE7F5E74CF2A00191
:10042000C4F20F01032008604CF2AC01C4F20F01CA
:10043000AA20086055200860FFE74CF2A800C4F22B
:100440000F00006800F44070B0F5407F01D0FFE776
:10045000F3E74CF2C401C4F20F0148F2DE70C0F2BF
:10046000284008604CF2C811C4F20F010020086057
:100470004CF20001C4F20F010868042262F30F304D
:1004800008607047B0B584B0029001910298FFF700
:100490001BFF20B1FFE700208DF80F0028E0029C31
:1004A00094F8800200EB800504EB8501019BD3F8F2
:1004B00010C0D3F800E058689A68DB6844F825E07B
:1004C000C1F810C0CB608A604860029890F8800242
:1004D000013000F01F00029981F88002029991F822
:1004E0008202013081F8820201208DF80F00FFE7BF
:1004F0009DF80F0004B0B0BD80B58CB00A90099192
:10050000FFF7EEFE089008980A99B0FBF1F007900B
:1005100000208DF8070019200690FFE706980828AC
:1005200043D3FFE7079A0699B2FBF1F000FB1120D5
:1005300008B1FFE735E007980699B0FBF1F00590A8
:10054000059828B1FFE70598B0F5806F01D9FFE75E
:1005500027E006984CF6CD41CCF6CC41A0FB01102B
:10056000800803900398012803D8FFE70220039036
:10057000FFE70398092803D3FFE708200390FFE76C
:1005800006990398C04308440490049820B1FFE7FB
:100590000498112801D3FFE703E001208DF807003C
:1005A00003E0069801380690B8E79DF80700C007F9
:1005B00020B9FFE74FF0FF300B9027E003980328A6
:1005C00003D8FFE70398009002E004200090FFE7C3
:1005D00000980290059801386FF39F20029940EA35
:1005E0008130A0F58040049A0021CFF6FF7101EB25
:1005F00002410843039A0021CFF6F07101EB02514A
:1006000008430999086000200B90FFE70B980CB095
:1006100080BD000082B08DF803009DF8030048B94A
:10062000FFE74CF2C401C4F20F01086840F4005027
:10063000086012E09DF80300012809D1FFE74CF2A1
:10064000C401C4F20F01086840F48040086003E070
:100650004FF0FF3001900FE0FFE74CF2A811C4F219
:100660000F01086820F040600860086820F04050E2
:10067000086000200190FFE7019802B07047000079
:1006800083B08DF807009DF8070068B9FFE74CF2CA
:100690000001C4F20201086820F00F000860086839
:1006A00040F0050008601FE09DF80700012816D102
:1006B000FFE74CF20001C4F202010091086820F447
:1006C00040700860086840F400700860086820F412
:1006D00040600860086840F40060086003E04FF084
:1006E000FF30029003E0FFE700200290FFE702984E
:1006F00003B0704780B588B00690069820B9FFE730
:100700004FF0FF3007908AE0069800788DF81700C8
:100710009DF81700022804DBFFE74FF0FF30079039
:100720007DE09DF8170000F07DF804909DF817100B
:1007300040F20800C1F2000000EB812003909DF818
:100740001700FFF767FF0290029818B1FFE70298C1
:10075000079064E09DF81700FFF792FF029002985F
:1007600018B1FFE70298079059E00499012008604A
:100770000499002088600698406801A9FFF7BCFE34
:100780000290029818B1FFE70298079047E001989D
:10079000049948610499602088610498C0680499AC
:1007A0000020086140F60800C1F200000078C00790
:1007B00038B9FFE74CF20001C4F2030102200860DF
:1007C000FFE703984FF48061FFF7B5FC0698C06817
:1007D0000399486006980069039988600698007D2F
:1007E000039900F00100487040F60C00C1F20000CF
:1007F00000680399C1F8F4030399012008709DF87B
:1008000017000699097A00F01FF80290029818B1B3
:10081000FFE70298079002E000200790FFE70798A3
:1008200008B080BD81B08DF803009DF8031048F238
:100830000000C4F20400002904BF44F20000C4F226
:10084000040001B07047000080B584B08DF80B0043
:100850008DF80A109DF80B00022804DBFFE74FF02B
:10086000FF30039038E09DF80B00FFF7DBFF0190AD
:100870009DF80A0001460091032826D80099DFE878
:1008800001F00208131E0199086820F007000860B3
:100890001FE00199086840F00200086001990868AB
:1008A00020F00100086014E00199086840F004009D
:1008B00008600199086820F00100086009E00199CA
:1008C000086840F00100086003E04FF0FF3003903B
:1008D00002E000200390FFE7039804B080BD000011
:1008E00080B540F60C01C1F20001086801300860D3
:1008F000FFF7A4FC80BD000080B58CB08DF82B0004
:1009000009919DF82B00012803DCFFE7099820B925
:10091000FFE74FF0FF300B90B7E09DF82B0081020E
:1009200040F20800C1F20000405CC00720B9FFE7B8
:100930006FF006000B90A8E09DF82B00FFF772FF08
:1009400008900898C06907900998807900F00F0016
:100950000004069009980079012805D1FFE7069860
:1009600040F000400690FFE709984079C00728B1A1
:10097000FFE7069840F080400690FFE7099800796D
:10098000012806D1FFE70998006820F06040019037
:1009900005E0099800686FF3DF200190FFE70198F8
:1009A00005900998D0F8070004900998D0F80B003A
:1009B00003909DF81C00400700280FD5FFE706981C
:1009C000089908630598089948630498089988630A
:1009D00003980899C8632020029041E09DF81D000B
:1009E000400700280FD5FFE7069808990864059886
:1009F0000899486404980899886403980899C86419
:100A0000402002902BE09DF81E00400700280FD5E3
:100A1000FFE70698089908650598089948650498BD
:100A20000899886503980899C8658020029015E0A8
:100A30009DF82B1040F20800C1F2000000EB81206D
:100A400000F52470099900F077F820B9FFE76FF0FE
:100A500003000B9019E000200B9016E0FFE7FFE782
:100A6000089800684007002806D5FFE7029840F084
:100A700010000899486005E0029840F001000899CC
:100A80004860FFE700200B90FFE70B980CB080BD9B
:100A900081B00090009890F84201B0FA80F04009CF
:100AA00001B0704781B00090009890F8421100208A
:100AB0000F29C8BF012001B07047000080B584B085
:100AC000029001910298FFF7E3FF20B1FFE70020B9
:100AD0008DF80F002BE00199029890F8412102EB6C
:100AE000820200EB820E50F82200DEF80420DEF8CD
:100AF0000830DEF80CC0DEF810E0C1F810E0C1F8F4
:100B00000CC08B604A600860029890F84101013087
:100B100000F00F00029981F84101029991F8420119
:100B2000013881F8420101208DF80F00FFE79DF8A0
:100B30000F0004B080BD0000B0B584B002900191F8
:100B40000298FFF7AFFF20B1FFE700208DF80F00FC
:100B500028E0029C94F8400100EB800504EB85013D
:100B6000019BD3F810C0D3F800E058689A68DB689E
:100B700044F825E0C1F810C0CB608A604860029854
:100B800090F84001013000F00F00029981F8400117
:100B9000029991F84201013081F8420101208DF85B
:100BA0000F00FFE79DF80F0004B0B0BD82B00190C8
:100BB000FFE70198A8B1FFE700200090FFE7009849
:100BC00048F29F61C0F20101884205D8FFE7FFE7C4
:100BD000009801300090F2E7FFE70198013801909A
:100BE000E7E702B07047000082B08DF807009DF87B
:100BF000071040F20800C1F2000000EB81204078AD
:100C0000C00738B1FFE740F60C00C1F200000068F1
:100C1000009002E000200090FFE7009802B07047CB
:100C200084B002900298C0F3815001900198009026
:100C300040B1FFE70098012808D0FFE7009802289C
:100C400008D00BE005208DF80F000BE002208DF896
:100C50000F0007E001208DF80F0003E006208DF85B
:100C60000F00FFE79DF80F0004B0704780B590B00B
:100C70000F908DF83B109DF83B1040F20800C1F238
:100C8000000000EB81200D90FFE70D9800F5247027
:100C9000FFF7FEFE002840F09680FFE70F98C0693E
:100CA00007909DF81C00400700280FD5FFE70F981C
:100CB000303005900F98343004900F9838300390FE
:100CC0000F983C300290202006902CE09DF81D00EB
:100CD000400700280FD5FFE70F98403005900F9888
:100CE000443004900F98483003900F984C30029095
:100CF0004020069016E09DF81E00400700280FD502
:100D0000FFE70F98503005900F98543004900F98DB
:100D1000583003900F985C3002908020069000E0DD
:100D200051E0FFE7FFE70D9800F5247008A9FFF7F1
:100D3000C5FE9DF8260000F00F00000401909DF80C
:100D40002400012805D1FFE7019840F00040019000
:100D5000FFE79DF82500C00728B1FFE7019840F0A4
:100D600080400190FFE70198059908609DF82400F4
:100D7000012805D1FFE7089820F06040009004E0CA
:100D800008986FF3DF200090FFE70098049908604F
:100D9000DDF8270003990860DDF82B000299086050
:100DA0000F9800684007002806D5FFE7069840F036
:100DB00010000F99486005E0069840F001000F9977
:100DC0004860FFE761E710B080BD000080B586B0E5
:100DD00005908DF813100598C06803909DF81310C6
:100DE00040F20800C1F2000000EB8120029002985E
:100DF0000078C00708B9FFE7ABE09DF80C00C0071A
:100E000060B1FFE705989DF8131000F0A5F802996E
:100E1000D1F8D8030130C1F8D803FFE7BDF80C00C2
:100E200040F2026108420CD0FFE70299D1F8D403E6
:100E30000130C1F8D40305989DF81310FFF716FF91
:100E4000FFE79DF80C00000700280AD5FFE7059989
:100E5000082048600299D1F8E8030130C1F8E8039E
:100E6000FFE79DF80C004006002807D5FFE7029930
:100E7000D1F8EC030130C1F8EC03FFE79DF80C005A
:100E8000000600281DD5FFE70398FFF7C9FE8DF87F
:100E900007009DF80700029981F8F0030299D1F844
:100EA000DC030130C1F8DC030298806840B1FFE741
:100EB000029882689DF813009DF807109047FFE79D
:100EC000FFE79DF80C0010F0240F42D0FFE70598D3
:100ED00080680006002822D5FFE70299D1F8E403D4
:100EE0000130C1F8E4030299072081F8F003029968
:100EF000012081F8F80340F60C00C1F20000006800
:100F00000299C1F8FC030298806838B1FFE70298A3
:100F100082689DF8130007219047FFE718E00598C5
:100F200080684006002812D5FFE70299D1F8E00357
:100F30000130C1F8E0030298806838B1FFE70298F9
:100F400082689DF8130003219047FFE7FFE7FFE762
:100F5000FFE706B080BD000080B58EB00D908DF823
:100F600033109DF8331040F20800C1F2000000EB8E
:100F700081200B90FFE70D988068C007002862D0A1
:100F8000FFE70D98006A05900D98406A04900D984F
:100F9000806A03900D98C06A02900598C00F8DF882
:100FA0001C009DF81C00012805D1FFE7049820F0E3
:100FB0006040019004E004986FF3DF200190FFE7A8
:100FC000019806900598C0F380708DF81D00059873
:100FD000C0F303408DF81E0003988DF81F0003989E
:100FE000000A8DF82000BDF80E008DF821009DF854
:100FF0000F008DF8220002988DF823000298000A55
:101000008DF82400BDF80A008DF825009DF80B002E
:101010008DF826009DF83300FFF7E6FD0A900D9944
:10102000042048600B980C3006A9FFF72BFA0B98A8
:10103000406838B1FFE70B9842689DF8330006A975
:101040009047FFE797E70EB080BD000080B594B0F1
:101050000020029013904CF22001C2F209010868AE
:1010600040F4340008604CF23C01C2F209014FF434
:101070003400086040F20000C1F20000006844F64D
:10108000D351C1F26201A0FB01108009FFF786F87D
:101090004FF4E13000F00AF941F29440C0F2000050
:1010A00000F0C2F941F20050C0F2000000F0BCF9BB
:1010B00041F24150C0F2000000F0B6F941F2645034
:1010C000C0F2000000F0B0F941F26C40C0F2000044
:1010D00000F0AAF902981290119010900F900E90C3
:1010E0000D908DF834004AF22011C0F207010E91E4
:1010F0008DF83C0001208DF848000DA8FFF7FAFAA2
:1011000098B1FFE741F29740C0F2000000F08CF97F
:10111000FFE74CF23401C2F20901086880F43400A0
:1011200008606420FFF742FDF3E741F22A50C0F265
:10113000000000F079F941F2DA40C0F2000000F05E
:1011400073F941F2B040C0F2000000F06DF94CF2CA
:101150003801C2F209014FF48020086000208DF8A8
:1011600033000B90FFE79DF833000D214843C83052
:10117000ADF82A0000200190099008900790069091
:1011800005904FF4807105918DF8180008218DF8B5
:101190001A10AB218DF81B10CD218DF81C109DF875
:1011A00033108DF81D1001218DF81E109DF82B10A5
:1011B0008DF81F10BDF82A108DF820109DF83310FF
:1011C0009DF81F2051408DF82110FF218DF822102D
:1011D00005A9FFF791FB04900B9801300B9041F2A9
:1011E0008350C0F2000000F01FF90B9800F0BCF82B
:1011F00041F2AF50C0F2000000F016F9059803214B
:1012000000F0EAF841F28950C0F2000000F00CF959
:101210009DF81A0000F0A8F841F2AB50C0F20000AF
:1012200000F002F901980390FFE70398072813DC08
:10123000FFE7039820B1FFE7202000F07DF8FFE7EB
:10124000039905A80844C079022100F0C5F8FFE71A
:10125000039801300390E8E741F27F50C0F20000AC
:1012600000F0E2F8049A41F2A851C0F2000141F204
:101270009050C0F20000002A08BF084600F0D4F8E1
:101280000A2000F059F84CF23401C2F20901086852
:1012900080F4802008609DF8330001308DF8330021
:1012A0004FF4FA70FFF782FC5DE7000082B0019016
:1012B0004CF2C401C4F20F01086840F00800086055
:1012C0004CF2A811C4F20F01086840F04000086019
:1012D0004CF20001C4F20201086820F0F00008603E
:1012E000086840F0500008604CF20C01C4F20001A4
:1012F0008320087040F20000C1F200000068019AEB
:101300001201B0FBF2F0009000984CF20002C4F21F
:10131000000210700098000A4CF20402C4F20002AD
:101320001070032008704CF20801C4F2000107207D
:10133000087002B07047000081B08DF80300FFE72D
:101340004CF21400C4F2000000788006002801D49A
:10135000FFE7F5E79DF803004CF20001C4F200013D
:10136000087001B07047000080B586B0059000207D
:101370000190059820B9FFE73020FFF7DDFF29E055
:10138000FFE70598C8B1FFE705984CF6CD41CCF6CC
:10139000CC41A0FB0132D20802EB8202A0EB42005A
:1013A00040F03000019B5A1C019202AAD0540598CB
:1013B000A0FB0110C0080590E3E7FFE701980128B2
:1013C00008DBFFE70198411E019102A8405CFFF78E
:1013D000B3FFF3E706B080BD80B588B007900691F3
:1013E00041F29751C0F200010DF107001122FEF702
:1013F00089FE069801380090FFE70098002810D475
:10140000FFE7079800998900C84000F00F010DF12F
:101410000700405CFFF790FFFFE70098013800905D
:10142000EBE708B080BD000080B582B00190FFE717
:101430000198007880B1FFE7019800780A2804D16C
:10144000FFE70D20FFF778FFFFE70198411C0191AE
:101450000078FFF771FFEBE702B080BD7047002016
:1014600001E001C1121F002AFBD170473D3D3D3D07
:101470003D3D3D3D3D3D3D3D3D3D3D3D3D3D3D3D9C
:101480003D3D3D3D3D3D3D3D3D3D3D3D3D3D3D3D8C
:101490003D3D3D3D0A0A005B4641494C5D204341CC
:1014A0004E20696E6974206661696C6564210A006A
:1014B0002D2D2D2D2D2D2D2D2D2D2D2D2D2D2D2D5C
:1014C0002D2D2D2D2D2D2D2D2D2D2D2D2D2D2D2D4C
:1014D0002D2D2D2D2D2D2D2D0A005472616E736D25
:1014E000697474696E672049443D3078313030202A
:1014F0006576657279203530306D732E2E2E0A0098
:101500003D3D3D3D3D3D3D3D3D3D3D3D3D3D3D3D0B
:101510003D3D3D3D3D3D3D3D3D3D3D3D3D3D3D3DFB
:101520003D3D3D3D3D3D3D3D0A005B4F4B5D204314
:10153000414E3120696E697469616C697A65640A2B
:101540000020202043414E2054582044656D6F20D8
:10155000E28094204C50433137363820447269760B
:1015600065720A00202020506F6C6C696E67204DF8
:101570006F64652C20353030206B6270730A005D1B
:101580002020005B54582023002020444C433D0081
:101590004641494C454400303132333435363738D2
:1015A00039414243444546004F4B0020205B005DDB
:1015B0002049443D30780000D8150000000000109C
:1015C00004000000EE020000DC150000080000101E
:0C15D000080A00005E14000000E1F505B0
:04000005000000E116
:00000001FF
